:020000040800F2
:10000000E8310020753D00087105000873050008FF
:10001000770500087B0500087F0500080000000048
:100020000000000000000000000000008305000840
:100030008505000800000000870500088905000804
:100040008F3D00088F3D00088F3D00088F3D000860
:100050008F3D00088F3D00088F3D00088F3D000850
:100060008F3D00088F3D00088F3D00088F3D000840
:100070008F3D00088F3D00088F3D00088F3D000830
:100080008F3D00088F3D00088F3D00088F3D000820
:100090008F3D00088F3D00088F3D00088F3D000810
:1000A0008F3D00088F3D00088F3D00088F3D000800
:1000B0009D0C0008CF090008670800088F3D000864
:1000C0008F3D00088F3D00088F3D00088F3D0008E0
:1000D0008F3D00088F3C0008F92B00081926000806
:1000E0008F3D00088F3D00088F3D00088F3D0008C0
:1000F0008F3D00088F3D00088F3D00088F3D0008B0
:100100008F3D00088F3D0008190B00088F3D000847
:100110008F3D0008C92A0008110D00088F3D000816
:100120008F3D00088F3D00088F3D00088F3D00087F
:1001300000F002F800F090F80AA090E8000C824469
:100140008344AAF10107DA4501D100F085F8AFF246
:10015000090EBAE80F0013F0010F18BFFB1A43F0A5
:1001600001031847F48D0000148E0000103A24BFDC
:1001700078C878C1FAD8520724BF30C830C144BF0C
:1001800004680C607047000000230024002500264E
:10019000103A28BF78C1FBD8520728BF30C148BFEA
:1001A0000B6070476E2906F0FF80702906F0E5812C
:1001B000662908F03084652908F02D84672908F045
:1001C0002A84612908F0298403681B0A28BF41F0AA
:1001D0008001692906F0AC80642906F0A9807529A0
:1001E00006F0A6806F2906F07281782906F0B181A9
:1001F000E92906F08387E42906F08087F52906F0CF
:100200007D87EF2906F06F81F82906F0B081036839
:10021000DB0928BF41F08001632906F03A87732982
:1002200006F03F87E32906F05D87F32906F0628731
:10023000002070471FB507F025F8040000200021BA
:1002400007F00EFE401C60600020002107F0F2FD68
:10025000E0601FBD10B510BD07F08BF91146FFF728
:10026000E9FF00F0C9F807F0B7F903B4FFF7F2FFB0
:1002700003BC03F0B1FC000044F644009F49088031
:100280009F490880704710B53146204600F073FF43
:100290009A4908803946284601F087F8984908802D
:1002A00010BD10B59748007801281BD196480078FA
:1002B000C0B90020934908709449087094A003F0D5
:1002C00023FD00209B490870FFF7DDFF012188070F
:1002D00004F08EFD00214FF0804005F01DF801F084
:1002E00069F904E0FFF7C8FF01208849087010BDD4
:1002F0002DE9F04700F02DFE044600F050FE0546C3
:10030000A4F2B150002801DB014600E041428846DA
:10031000A5F25D60002801DB014600E0414289460C
:1003200040F2D57084425BDAB4F5797F58DB40F651
:100330004D00854254DA40F25B40854250DD012099
:100340007D490870B4F5EF6F01DD4FF4EF6440F2C2
:10035000EA30844200DA044640F62400854200DD9B
:10036000054640F29640854200DA0546002067497E
:100370000870A4F2EA306421484340F28E3190FBC9
:10038000F1F6A5F296406421484340F28E3190FB8D
:10039000F1F74FF448707043642190FBF1F044F69C
:1003A000D411081A554908804FF4487078436421E5
:1003B00090FBF1F044F6D411081A51490880B8F1C5
:1003C0000A0F17DAB9F10A0F14DA00205A49087037
:1003D000FFF752FF00204C490870FFF762FF09E069
:1003E000002055490870FFF747FF00204649087074
:1003F000FFF757FFBDE8F08703F084FB4FF4A060E0
:1004000003F0D8FC00F0B2F900F0F4FF01204B49F2
:10041000086002F067F94FF4E13003F0ECFB4FF4B1
:10042000E13002F076FB00F0AFFC4FF4165002F022
:10043000F8FB4FF4E13002F09DF840F27121072003
:1004400001F0A2F8472144F61F6000F01FFA47218F
:100450004FF6FF7000F069FA47214FF6FF7000F089
:100460000EFB00F0A9F901203549C1F8B00101F0F7
:10047000C2F801F074F941F61F4142F20F7000F02A
:100480001AFC41F61F4141F26F7000F09DFB44F2EF
:10049000B4612C4804F046FF44F2B461294804F0EA
:1004A00043FF4FF47A7003F06AFB44F6D4112548F9
:1004B00004F038FF44F6D411224804F035FF4FF41D
:1004C0007A7003F05CFB18E000F02CFDFFF710FFE2
:1004D00003F074FA094801881A4804F021FF08481B
:1004E0000188184804F020FF01F060F804480288F1
:1004F0000248018814A003F007FCE5E7060000208D
:1005000008000020390000203800002002000020F0
:10051000CEEFC1AACDF8D6F7BFD8B3CCD0F22D2DEF
:100520002D2D2D2D2D2D2D2D2D2D2D2D2D2D2D2DFB
:100530002D0D0A00320000200B000020B481214262
:100540000080214200080040D6F7BAAFCAFDD6D0DD
:100550004348325F4F5554A3BA25640D09094348F7
:10056000335F4F5554A3BA25640D0A09090D0A00DB
:10057000704700BFFEE700BFFEE700BFFEE700BF19
:10058000FEE7704770477047704700000CB50020C9
:10059000019000906C48006840F480306A4908601F
:1005A00000BF6948006800F4003000900198401CCA
:1005B0000190009818B90198B0F5A06FF1D1624888
:1005C000006800F4003010B10120009001E000202C
:1005D00000900098012843D15C48006840F010006A
:1005E0005A4908600846006820F003000860084681
:1005F000006840F002000860534840685249486073
:100600000846406848600846406840F4806048609A
:100610000846406820F47C1048600846406840F472
:10062000E81048600846006840F08070086000BF2D
:100630004548006800F000700028F9D04248406842
:1006400020F00300404948600846406840F002003E
:10065000486000BF3C48406800F00C000828F9D111
:100660000CBD10B5FFF792FF10BD10B536480068FD
:1006700040F00100344908600846406834490840A9
:100680003149486008460068324908402E490860F0
:100690000846006820F4802008600846406820F47E
:1006A000FE0048604FF41F008860FFF7DAFF4FF04C
:1006B00000602949086010BD10B50021002000220B
:1006C000214B5B6803F00C0121B1042906D00829F5
:1006D00028D107E0214B224C236027E01F4B204C00
:1006E000236023E0184B5B6803F47010164B5B68C3
:1006F00003F48032022303EB904022B9194B4343A9
:10070000174C23600DE0104B5B6803F4003323B1FA
:10071000144B4343124C236003E0104B4343104CF3
:10072000236003E00D4B0E4C236000BF00BF064B5F
:100730005B68C3F303130C4CE15C094B1B68CB40B3
:10074000074C236010BD0000001002400020024052
:100750000000FFF8FFFFF6FE08ED00E000127A004F
:100760001000002000093D001400002008B5012100
:10077000182003F0A9FE4FF40050ADF8000010203F
:100780008DF8030003208DF8020069461D4803F030
:10079000DFFB4FF400511B4803F087FC4FF400507F
:1007A000ADF800006946184803F0D2FB4FF4005141
:1007B000154803F07AFC08BD08B50121182003F0A4
:1007C00083FE8020ADF8000010208DF80300032088
:1007D0008DF8020069460B4803F0BAFB4FF48050D5
:1007E000ADF8000010208DF8030003208DF8020002
:1007F0006946054803F0ACFB4FF48051024803F012
:1008000054FC08BD00100140000C01407FB50546B6
:100810000C460121042003F064FEADF80850ADF849
:1008200004400020ADF80A00ADF8060001A9FB481D
:1008300003F082FF01221146F84804F0F4FA1E206A
:100840008DF8000000208DF8010003208DF80200D3
:1008500001208DF80300684603F0B1FA0121EF484A
:1008600004F0C6FA7FBD10B50121EC4804F089FD03
:1008700058B10121E94804F095FDE948006808B93C
:10088000012000E00020E649086010BD30B589B0C5
:1008900005460C460121042003F023FE0121082017
:1008A00003F012FE4FF4A070ADF8200018208DF870
:1008B000230003208DF8220008A9DA4803F048FB42
:1008C000ADF81850ADF814400020ADF81A00ADF89E
:1008D000160005A9D14803F02FFF7020ADF80400E1
:1008E0000120ADF806000020ADF80C0001A9CB48AE
:1008F00003F05FFF0821C94804F0AAFB7020ADF89F
:1009000004000120ADF806000020ADF80C0001A99C
:10091000C24803F0DDFF0821C04804F0AFFB01210D
:10092000BE4804F065FA09B030BD30B585B0054663
:100930000C460121022003F0D4FD0121092003F01F
:10094000C3FD0121B84803F0D4FB0120ADF810002D
:1009500028208DF8130004A9B24803F0F9FA012108
:10096000B04803F0A4FBADF80850ADF804400020F7
:10097000ADF80A00ADF8060001A9AC4803F0DCFEB2
:100980000820AB4908800020488001208880002092
:10099000C8800881A54804F062F91D208DF8000088
:1009A00002208DF8010000208DF8020001208DF852
:1009B0000300684603F003FA012208219B4804F073
:1009C00032FA0121994804F013FA05B030BD10B590
:1009D0009648103004889748007800F0800000287E
:1009E00048D104F00100D0B19248007800F04000F6
:1009F000A8B19048007800F03F003F280AD18D4808
:100A0000007840F080008B4908704FF6FF708A49EB
:100A1000088004E087480078401C8649087004F08C
:100A2000080038B38348007800F0400078B181486E
:100A3000007840F080007F4908707C4804F088FC12
:100A40007D4908800021794804F0B0FB12E00020C5
:100A50007949088040207749087074483C30008804
:100A60007649088071482030008840F400706F4952
:100A70002031088009216D4804F094FC10BD30B588
:100A800085B005460C460121082003F02AFD01210E
:100A9000052003F019FD0120ADF8100028208DF885
:100AA000130004A95F4803F053FA01215D4803F0E5
:100AB000FEFAADF80850ADF804400020ADF80A0089
:100AC000ADF8060001A95E4803F036FE00205D493E
:100AD00008804880012088800020C880088158480C
:100AE00004F0BDF832208DF8000002208DF80100DE
:100AF00000208DF8020001208DF80300684603F005
:100B00005EF9012202214E4804F08DF901214C4882
:100B100004F06EF905B030BD10B5494810300488B6
:100B20004948007800F08000002848D104F0010016
:100B3000D0B14548007800F04000A8B142480078A4
:100B400000F03F003F280AD13F48007840F0800085
:100B50003D4908704FF6FF703C49088004E03A4870
:100B60000078401C3849087004F0020038B3364859
:100B7000007800F0400078B13348007840F0800001
:100B8000314908702E4804F0DDFB3049088000210F
:100B90002B4804F0DFFA12E000202C4908804020A6
:100BA000294908702648343000882949088024489B
:100BB0002030008840F002002149203108800321C4
:100BC0001F4804F0EFFB10BD7FB505460C46012120
:100BD000084603F086FCADF80850ADF8044000204C
:100BE000ADF80A00ADF8060001A94FF0804003F00F
:100BF000A3FD01221146900704F015F91C208DF881
:100C0000000000208DF8010003208DF80200012073
:100C10008DF80300684603F0D2F87FBD000800405D
:100C200094812142000C014000081A000004004099
:100C3000EC00002026000020280000202A000020D0
:100C4000000C0040F60000202C0000202E000020A8
:100C50003000002010B541480078401C3F49087022
:100C6000084600783E490978884201DAFFF70BFB15
:100C70003A4800783A490978884209DD0020374926
:100C8000087000214FF0804004F0B2F8FFF7F4FA4A
:100C90003248017833A003F037F810BD10B50121B8
:100CA000880704F06EFB28B10121880704F07AFB65
:100CB000FFF7D0FF10BD7FB505460C46012110207F
:100CC00003F00FFCADF80850ADF804400020ADF87B
:100CD0000A00ADF8060001A9284803F02DFD012205
:100CE0001146264804F09FF836208DF800000020B9
:100CF0008DF8010004208DF8020001208DF803001A
:100D0000684603F05CF801211C4804F071F87FBDCF
:100D100010B500240121194804F033FBC0B1601C58
:100D2000C4B217480078401C15490870154800786F
:100D3000401C1449087008460078052801D100209D
:100D400008700F4800780A2802D100200C4908706A
:100D500001210A4804F026FB10BD000032000020EB
:100D60004C00002074696D325F74696D65A1AAA1A1
:100D7000AAA1AAA1AA2025640D0A00000010004023
:100D8000330000203400002000B587B001214FF46B
:100D9000047003F099FB0121082003F095FB4FF448
:100DA000404003F0F5FA0420ADF8040000208DF86F
:100DB000070001A93A4803F0CBF80220ADF804007F
:100DC00000208DF8070001A9364803F0C1F8364825
:100DD00004F0F0FC4FF48030029000208DF80C00FD
:100DE0008DF80D004FF46020049000200590012044
:100DF0008DF8180002A92C4804F003FD07230122F6
:100E00000921294804F095FD072304220C212648D6
:100E100004F08FFD0121244804F01FFD224804F056
:100E20003EFD00BF204804F03FFD0028FAD11E48D7
:100E300004F044FD00BF1C4804F045FD0028FAD131
:100E400007B000BD10B5044607230122214616480D
:100E500004F06FFD0121144804F03FFD00BF0221A2
:100E6000114804F0ABFE0028F9D00F4804F0C8FD8B
:100E700010BD2DE9F04107460C460025002608E08C
:100E80003846FFF7DFFF0544022002F078FE701CB1
:100E9000C6B2A642F4DBB5FBF4F080B2BDE8F08147
:100EA00000100140000C01400024014010B5F7483B
:100EB000007800F08000002830D0F448007800F07E
:100EC0003F00F349086008460088000408600846AF
:100ED0000068F04909880844ED4908600846006840
:100EE000ED490988401AEA49086008460168EBA004
:100EF00002F00AFF0020E8490880E4490870E4484D
:100F0000006840F6480188420BD2E1480068B0F51D
:100F10008C6F06D90120E749087002E00020E549FE
:100F2000087010BD10B5E4A1E74805F002FC78B1E7
:100F3000E6A1E54805F0FDFB50B10120E549087048
:100F40000020E549087001F089FA401EE349087065
:100F500010BDE348007800F08000E0B1E048007880
:100F600000F03F00CA490860084600880004086095
:100F700008460068DB4909880844C54908600846F6
:100F80000068D9490988401AC14908600020D6493B
:100F90000880D3490870BE48008880B27047BB48BB
:100FA000007800F08000D0B1B848007800F03F0031
:100FB000CE490860084600880004086008460068BA
:100FC000B44909880844C949086008460068B2491C
:100FD0000988401AC54908600020AC490870C34818
:100FE000006840F64D01884209D2C048006840F2CE
:100FF0005B41884203D90120AE49087002E000201D
:10100000AC490870B948008880B270472DE9F047B4
:10101000FFF79FFF814640F2D570814509DAB9F5A7
:10102000797F06DB0120A3490870FFF792FF814614
:1010300002E000209F490870A9F57A7007F0DDF8FA
:1010400007460022AA4B07F0EFF8054607F0A8F87C
:1010500084B2B4F5E17F05DD40F22620844201DA56
:101060004FF4FA742046BDE8F08700B5FFF797FF0C
:101070000346A3F57A7082B2B2F5E17F05DD40F256
:101080002620824201DA4FF4FA72104600BD38B5CC
:1010900000200090974800F0D5F99749088097A163
:1010A000894805F046FB9A49086008460068002810
:1010B00060D098A1844805F03CFB90B100208E4997
:1010C00008800125002404E08B4800884DF82400A6
:1010D000641CAC42F8DB2A466946864800F0D9F920
:1010E00048E092A1784805F024FBF8B182480088D6
:1010F000801C8149088008460088142802DB1420DF
:10110000088003E07C4800887B4908800125002492
:1011100004E0794800884DF82400641CAC42F8DBF8
:101120002A466946734800F0B4F923E085A1664871
:1011300005F0FFFAF0B170480088801E6E49088003
:1011400008460088142802DB0020088003E06A4873
:101150000088694908800125002404E06648008869
:101160004DF82400641CAC42F8DB2A46694661480D
:1011700000F08FF938BD2DE9F04100BFFFF787FF80
:101180005C4800F05FF907464FF4487078436421EB
:1011900090FBF1F085B201F04EF9044644F64400AC
:1011A000844200D0264644F64400844200D10646DC
:1011B0003046BDE8F08138B5002000904D48083039
:1011C00000F040F9654908804CA13F4805F0B1FAAC
:1011D0004F49086008460068002817D04DA13A48DA
:1011E00005F0A7FA98B100205C4908800125002489
:1011F00004E05A4800884DF82400641CAC42F8DB37
:101200002A4669463B48083000F043F9CCE054A137
:101210002D4805F08EFA00B350480088801C4F49D5
:10122000088008460088142802DB1420088003E0A8
:101230004A480088494908800125002404E04748BD
:1012400000884DF82400641CAC42F8DB2A4669464D
:101250002848083000F01DF9A6E047A11A4805F01B
:1012600068FA90B13D480088801E3C4908800846D5
:101270000088142802DB0020088003E0374800883B
:10128000364908800125002487E08DE02C000020ED
:10129000400000202E0000203000002054494D3234
:1012A0005F4348325F484947483A25642075730DCB
:1012B0000A000000380000202F736861646F772FE8
:1012C0006765742F00000000C714002076657273F4
:1012D000696F6E0039000020020000204C000020E1
:1012E00026000020280000202A0000203C000020CA
:1012F0000000F03F000007084E000020426F6174BC
:101300005F43616C6962726174696F6E0000000016
:101310005800002022426F61745F43616C69627201
:101320006174696F6E223A300000000022426F61E2
:10133000745F43616C6962726174696F6E223A31E5
:101340000000000022426F61745F43616C69627249
:101350006174696F6E223A32000000005000002074
:1013600022426F61745F43616C6962726174696F7C
:101370006E223A330000000022426F61745F4361C5
:101380006C6962726174696F6E223A340000000009
:10139000164800884DF82400641CAC42F8DB2A464D
:1013A0006946134800F075F838BD2DE9F04100BFDB
:1013B000FFF701FF0E4800F045F807464FF448706C
:1013C0007843642190FBF1F085B201F021F80446E6
:1013D00044F64400844200D0264644F64400844249
:1013E00000D106463046BDE8F081000050000020E4
:1013F0000800070808B50121142003F065F8122041
:10140000ADF8000010208DF8030003208DF80200D5
:1014100069460A4802F09CFD0221084802F045FE98
:101420004FF4C440ADF800006946054802F090FD55
:101430004FF4C441024802F038FE08BD00080140E4
:10144000000C01400146088870472DE9F04105462F
:101450000E461746002407E036F81410284604F01C
:1014600038FDAD1C601C84B2BC42F5DBBDE8F081E8
:1014700030B503460C461546002207E01846FFF734
:10148000E1FF24F812009B1C501C82B2AA42F5DB3B
:1014900030BD2DE9F05F80468A461746B8F1006FEF
:1014A00002D33748804501D3BDE8F09F04F0C9FB63
:1014B000A8F1006B4FEADB25CBF34909C9F580643D
:1014C000A74200DC3C464DE04FF0006101EBC52037
:1014D0004A142C49FFF7CCFF00260BE009EB06006D
:1014E000284931F810004FF6FF71884200D003E020
:1014F000701C86B2A642F1DB00BFA6421BDA4FF099
:10150000006101EBC52004F0E1FB002608E03AF899
:10151000160006EB09011B4A22F81100701C86B266
:10152000A642F4DB4FF0006101EBC5204A141549D7
:10153000FFF78BFF04E0224651464046FFF785FF48
:10154000A74200D10FE06D1C4FF000090AEB440ADE
:10155000A044381B87B2B7F5806F02DD4FF480647A
:1015600000E03C46B0E700BF04F077FB00BF9BE71C
:1015700013B50446012201A92046FFF78AFF1CBDCE
:10158000000008080001002070B505460C4645F231
:10159000555004F015FE284604F015FE204604F0D0
:1015A00015FE04F016FE04F019FE70BD10B504F02F
:1015B00010FE10BD10B5CD4801F063F8002404E022
:1015C0000020CA490855601C84B2B4F5617FF7DB7E
:1015D0000020C7490860FFF7E9FF10BD002003E0C5
:1015E0000021C44A1154401CB0F5FA6FF8D3002111
:1015F000C14A1180704710B5C0A001F042F84FF405
:10160000967002F0BCFAC6A004F00EFE4FF496707D
:1016100002F0B5FAC4A1B54805F08BF8C3490860DB
:10162000FFF7C8FF0EE0FFF7C5FFBDA004F0FCFD0B
:101630004FF4967002F0A3FABBA1AC4805F079F81C
:10164000BA490860B94800680028ECD0B8A004F096
:10165000EBFD4FF4967002F092FAB8A004F0E4FDAE
:101660004FF4967002F08BFAB8A004F0DDFD4FF451
:10167000967002F084FAB9A004F0D6FD4FF496708B
:1016800002F07DFAB8A1994805F053F8A74908601F
:10169000FFF790FF0EE0FFF78DFFB0A004F0C4FD50
:1016A0004FF4967002F06BFAAFA1904805F041F844
:1016B0009E4908609D4800680028ECD0ABA004F06B
:1016C000B3FD4FF4967002F05AFAFFF773FFAEA025
:1016D00004F0AAFD4FF4967002F051FAFFF76AFF8A
:1016E000ADA004F0A1FD4FF4967002F048FAFFF7A8
:1016F00061FFB0A004F098FD4FF4967002F03FFA3D
:10170000FFF758FFAEA004F08FFD4FF4967002F083
:1017100036FAAEA1754805F00CF884490860FFF769
:1017200049FF0EE0FFF746FFA5A004F07DFD4FF452
:10173000967002F024FAA5A16C4804F0FAFF7B49E8
:1017400008607A4800680028ECD0A3A004F06CFD83
:101750004FF4967002F013FAFFF72CFF10BD08B596
:10176000A0A0A9A3ADA2B7A10090C3A004F05CFD06
:101770004FF4967002F003FAFFF71CFFCAA004F0C2
:1017800053FD4FF4967002F0FAF9CFA1574804F0D8
:10179000D0FF664908600CE0CFA000F072FF4FF464
:1017A0007A7002F0ECF9C8A1504804F0C2FF5F491A
:1017B00008605E4800680028EED0FFF7FBFE08BD19
:1017C00010B5CFA1DCA004F02FFD4FF4967002F00D
:1017D000D6F9DEA1454804F0ACFF54490860FFF794
:1017E000E9FE10BD10B5E1A1424804F0A2FF98B196
:1017F0004BA002F089FA4AA004F016FD4FF496704F
:1018000002F0BDF948A1394804F093FF4749086048
:10181000FFF7D0FEFFF7E2FED5A1364804F089FFBE
:1018200058B1D7A1DFA004F0FFFC4FF4967002F08E
:10183000A6F9FFF7BFFEFFF7D1FEDFA12D4804F0A8
:1018400078FF58B1DFA1D7A004F0EEFC4FF49670FA
:1018500002F095F9FFF7AEFEFFF7C0FEE1A12548C3
:1018600004F067FF58B1E4A1CEA004F0DDFC4FF412
:10187000967002F084F9FFF79DFEFFF7AFFEE9A135
:101880001C4804F056FF58B1E9A1C6A004F0CCFCF6
:101890004FF4967002F073F9FFF78CFEFFF79EFE8F
:1018A000EDA1144804F045FF58B1EFA1BDA004F02C
:1018B000BBFC4FF4967002F062F9FFF77BFEFFF776
:1018C0008DFEF3A10B4804F034FF68B1F3A002F0E1
:1018D0001BFAF6A004F0A8FC4FF4967002F04FF942
:1018E000FFF768FEFFF77AFE10BD7047C7140020AF
:1018F0007E000020C0290020D4000020B1BEB4CE5C
:10190000B2E2CAD4CAC7B7A2CAFDBEDDB5BD4D5149
:101910005454B7FECEF1C6F7B9A6C4DC0D0A0000D8
:1019200041540D0A000000004F4B000058000020F9
:101930004154453026570D0A0000000041542B4DFC
:10194000515454444953430D0A00000041542B4D57
:1019500051545444454C0D0A0000000041542B439F
:10196000494D490D0A0000003436300041542B43E4
:101970004744434F4E543D322C224950222C22439F
:101980004D4E4554220D0A0041542B4347414354C8
:101990003D312C310D0A000041542B435354543D2A
:1019A00022434D4E4554222C22222C2222200D0A65
:1019B0000000000041542B43494943520D0A0000E6
:1019C00041542B43474154543F0D0A002B43474198
:1019D00054543A310000000041542B4353510D0A36
:1019E0000000000046434635343741364235413029
:1019F000343438363341304532463039343938336F
:101A0000433044310000000050444C3138302667E8
:101A100062797354464644757174000050444C31E9
:101A200038307C7365637572656D6F64653D332C0A
:101A30007369676E6D6574686F643D686D61636D31
:101A400064357C0067627973544646447571742E20
:101A5000696F742D61732D6D7174742E636E2D73A7
:101A600068616E676861692E616C6979756E637310
:101A70002E636F6D0000000041542B4D51545443B0
:101A800046473D222573222C313838332C222573CA
:101A9000222C36302C222573222C222573222C3026
:101AA0002C22222C300D0A0041542B4D5154544FFE
:101AB00050454E3D312C312C302C302C302C2222F4
:101AC0002C22220D0A0000002B4D5154544F50453A
:101AD0004E3A4F4B00000000CEB4B2E9D1AFB5BDD5
:101AE000204D5154544F50454E3A4F4B2CD5FDD4B8
:101AF000DAD6D8D0C2B2E9D1AF2E2E2E0D0A000010
:101B00002F7379732F6762797354464644757174E5
:101B10002F50444C3138302F7468696E672F6576CA
:101B2000656E742F70726F70657274792F706F7339
:101B3000745F7265706C790041542B4D515454534D
:101B400055423D222573222C320D0A002B4D515453
:101B50005453554241434B3A322C322C6465762F14
:101B600067736D2F75204F4B00000000415400003B
:101B7000736861646F775F757064617465000000FD
:101B80002F736861646F772F7570646174652F6758
:101B9000627973544646447571742F50444C313801
:101BA0003000000041542B4D5154545355423D22B6
:101BB0002573222C310D0A00736861646F775F67AB
:101BC000657400002F736861646F772F6765742FE9
:101BD00067627973544646447571742F50444C3192
:101BE000383000007468696E675F636F6E6669679E
:101BF0005F707573680000002F7379732F676279C7
:101C000073544646447571742F50444C3138302F0C
:101C10007468696E672F636F6E6669672F7075737E
:101C2000680000006578745F726571756573740093
:101C30002F6578742F6E74702F67636B626B61749D
:101C4000314664792F50444C3138302F72657175AC
:101C500065737409000000006578745F72657370C5
:101C60006F6E7365000000002F6578742F6E7470BE
:101C70002F67636B626B6174314664792F50444CFB
:101C80003138302F726573706F6E73650900000014
:101C90002B4D51545453554200000000B2E9D1AFCE
:101CA000B6A9D4C4C7E9BFF60000000041542B4DCB
:101CB0005154545355423F0D0A00000008B500200E
:101CC000009008BD00B5ADF56D7D3022F3A1E1A80F
:101CD00004F06CFD6022FD4965A804F067FDFC4836
:101CE00000882B46224665A9009001A804F0A8FAB6
:101CF00001A8AFF21813F7A2E1A900907DA804F0A3
:101D00009FFAF74BAFF22C12F2A1E4A004F08CFA88
:101D1000F34BAFF23812EFA1E0A001F0F5FFEC4871
:101D20000088401CEA4908800DF56D7D00BD2DE955
:101D3000F04FADF2144D9022EA49DEA804F036FDD2
:101D40004022E9A169A804F031FD0120F6490860AC
:101D500000F045FE00F07CFE64210920FFF789F8C1
:101D6000CDF81004DDF8100406F000FD804606F002
:101D700059FB06464FF06632EC4B06F055FA044626
:101D800006F084F88246504606F04CFB0646E84AC8
:101D9000E84B06F0ADF8044606F078F88346E648CE
:101DA000007806F0E3FCCDF80C04E448007806F077
:101DB000DDFCCDF8080401F053F8DDF8080406F066
:101DC00031FB04460D46DDF80C0406F02BFB0646FD
:101DD0000F46584606F026FB8046D9480068424622
:101DE0000B46DEA9CDE90067CDE9024504907AA84B
:101DF00004F026FA7AA804F0AEFCC0B27990799883
:101E0000AFF22823B3A269A9009005A804F018FA3C
:101E10007AA905A804F0BEFC05A9CAA004F004FA3A
:101E200005A9C9A001F070FF4FF4967001F0A7FE5C
:101E3000FFF7C0FB0DF2144DBDE8F08F2DE9F04F18
:101E4000ADF2344DAC22C449E2A804F0AFFC40220C
:101E5000A5A16DA804F0AAFC0120B3490860BF4801
:101E6000006806F0DFFA04460D46BD48006806F03B
:101E7000D9FA06460F46BB48006806F0D3FA8046FA
:101E80008946B948006806F0CDFA82468B46B748C5
:101E90000078CDE90289CDE90467CDE906450890CF
:101EA000B3480068B349096852465B46CDE9001063
:101EB000E2A97EA804F0C4F97EA804F04CFCC0B2EC
:101EC0007D907D98AFF2EC2382A26DA9009009A8C5
:101ED00004F0B6F97EA909A804F05CFC09A999A050
:101EE00004F0A2F909A998A001F00EFFFFF762FB28
:101EF0000DF2344DBDE8F08FF0B5B7B014229EA1BD
:101F0000684604F053FCA1A1A24804F012FC00288A
:101F10005FD00020A0490870A0A19E4804F009FCF1
:101F20009F490860002400BF9D480168601C085C50
:101F30000D2800D107E09A480168601C095C9948A7
:101F40000155641CF0E700BF94A195480068401C4F
:101F500004F0EFFB92490860002400BF904801683C
:101F6000601C085C7D2800D107E08D480168601C7A
:101F7000095C8D480155641CF0E700BF7EA18A48CA
:101F800004F0D7FB08B36946874804F0D2FB064645
:101F9000684604F0E0FB0746F119032205A804F0A7
:101FA00037FC05A804F0B8FB054629467FA001F0E0
:101FB000ABFE002D0ADB642D08DC05EB850044F246
:101FC000506101EB40007D49086002E07CA001F017
:101FD0009BFE7A4801687FA001F096FE7748008852
:101FE00080B237B0F0BDF0B5B7B07EA30FCB01AC77
:101FF0000FC466A1674804F09CFB00284DD0002068
:102000006549087065A1634804F093FB6449086062
:10201000002400BF62480168601C085C0D2800D1E4
:1020200007E05F480168601C095C5E480155641C5C
:10203000F0E700BF59A15A480068401C04F079FB42
:1020400057490860002400BF55480168601C085CBF
:102050007D2800D107E052480168601C095C5248A5
:102060000155641CF0E700BF5EA14F4804F061FB1E
:1020700098B101A94C4804F05CFB064601A804F0A5
:102080006AFB0746F119032205A804F0C1FB05A865
:1020900004F042FB05462946ACE0BEE041542B4D1E
:1020A0005154545055423D222F736861646F772F0D
:1020B0007570646174652F25732F2573222C312C64
:1020C000302C302C25730D0A00000000E08E000833
:1020D000600000206762797354464644757174004D
:1020E0007C8E0008408D000841542B4D51545450B3
:1020F00055423D222F7379732F25732F25732F742B
:1021000068696E672F6576656E742F70726F706583
:102110007274792F706F7374222C312C302C302C08
:1021200025640D0A00000000A481214266664A3F32
:10213000736891ED7C3FC53F900000209100002026
:10214000940000202573000075315F7072696E7411
:10215000663A257300000000D08D0008C000002002
:10216000B0000020AC000020B40000200B000020D4
:10217000C8000020C40000202272696768745F6391
:102180006F6E74726F6C223A00000000636F6E74A1
:10219000726F6C00C7140020000000207B0000005C
:1021A000580000200F090020DF1000200D0A2072C7
:1021B000696768743D25640D0A0000006400002012
:1021C000434832CAE4B3F6D6B5B4EDCEF3A1A3A129
:1021D000A3A1A3006368325F74656D703A3A256409
:1021E0000D0A0000226C6566745F636F6E74726F17
:1021F0006C223A00A3A001F087FD002D0ADB642DBC
:1022000008DC05EB850044F2506101EB4000A04979
:10221000086002E09FA001F077FD9D480168A2A040
:1022200001F072FD9A48008880B237B0F0BDF0B579
:10223000B7B007461422AFF2C001684604F0B6FA00
:10224000AFF2B801384604F074FA002846D0AFF275
:10225000D801384604F06DFA00283FD06946384668
:1022600004F067FA0546684604F075FAC6B2A91983
:10227000032205A804F0CCFA05A804F04DFA0446A0
:1022800014F1640F26DB642C24DC14F1640F25DBCD
:10229000642C23DC002C11DA201E01DB014600E057
:1022A00041420C464FF4C8706043642190FBF1F04A
:1022B00044F64401081A804908800FE04FF4C870C2
:1022C0006043642190FBF1F044F6440108447A49EC
:1022D000088003E0AFF2181001F016FD7648008880
:1022E00037B0F0BDF0B5B7B00746AFF208130FCB6B
:1022F00001AC0FC4AFF21411384604F01AFA0028EA
:1023000039D001A9384604F014FA054601A804F0B2
:1023100022FA0646A919032205A804F079FA05A8AD
:1023200004F0FAF9044614F1640F21DB642C1FDC7D
:10233000002C11DA201E01DB014600E041420C4670
:102340004FF4C8706043642190FBF1F044F64401FF
:10235000081A5A4908600EE04FF4C87060436421BF
:1023600090FBF1F044F6440108445449086002E04F
:1023700048A001F0C9FC5148008880B237B0F0BDD8
:10238000F0B5B7B007464EA30FCB01AC0FC44CA1BC
:10239000384604F0CEF9D8B101A9384604F0C9F99D
:1023A000054601A804F0D7F90646A919022205A896
:1023B00004F02EFA05A804F0AFF90446002C04DD61
:1023C0000A2C02DC4248046002E042A001F09CFCBE
:1023D0003F48007837B0F0BD70B544A1454804F0DF
:1023E000A8F9A0B144A1434804F0A3F90646304639
:1023F000FFF71DFF04463046FFF774FF05462146F0
:1024000040A001F081FC294642A001F07DFC70BD96
:1024100010B536A1374804F08CF948B142A13548CF
:1024200004F087F904462046FFF701FF4049088081
:102430003F48008810BD10B52CA12E4804F079F952
:1024400048B139A12B4804F074F904462046FFF73F
:1024500049FF384908803748008810BD10B523A1CE
:10246000244804F066F948B12FA1224804F061F92C
:1024700004462046FFF784FF2F4908702E48007855
:1024800010BD00006C6566743D25640D0A000000F7
:1024900068000020434831CAE4B3F6D6B5B4EDCEA7
:1024A000F3A1A3A1A3A1A3006368335F74656D705A
:1024B0003A3A25640D0A00006C00002070000020EC
:1024C00022636F6E74726F6C5F74696D65223A007F
:1024D00074000020CAB1BCE4CAE4B3F6D6B5B4EDCA
:1024E000CEF3A1A3A1A3A1A30000000073686164BF
:1024F0006F770000C71400207265706F7274656496
:10250000000000006C656E6774683A0925640D0A66
:10251000000000006C656E6774685F726561763AF2
:102520000925640D0A000000646573697265640022
:10253000780000207A0000207C00002010B50446BE
:1025400000BF8021604803F0DBF80028F9D0214665
:102550005D4803F067F810BD10B5044600BF802148
:102560005A4803F0CDF80028F9D02146574803F027
:1025700059F810BD10B586B004460121880401F059
:10258000B0FF0121082001F09FFF504802F00EFF2C
:1025900018208DF817004FF48060ADF81400032068
:1025A0008DF8160005A94A4801F0D2FC04208DF8E8
:1025B00017004002ADF8140005A9454801F0C8FC19
:1025C00027208DF8100001208DF8130000208DF8D1
:1025D000110001208DF8120004A801F0F0FB009416
:1025E0000020ADF80400ADF80600ADF80800ADF825
:1025F0000C000C20ADF80A006946344802F019FFBF
:10260000012240F22551314802F0ABFF01212F4851
:1026100002F09BFF06B010BD10B540F225512B48CB
:1026200003F084F860B3294803F000F8C4B22948E5
:102630000088C0F30E0028490C5426480088401C2E
:102640002449088008460088B0F5FA6F01DB0020B5
:1026500008802048008840F400401E49088040F26D
:1026600025511A4803F08CF8184802F0DFFFC1B278
:102670001A4802880088401C184B1880184881545A
:1026800010BD0BE000BF1049098801F0400100298E
:10269000F9D001780C4A121D1180401C01780029E4
:1026A000F0D170470BE000BF0849098801F04001F4
:1026B0000029F9D00178054A121D1180401C0178CB
:1026C0000029F0D170470000003801400048004068
:1026D000000C014082000020AF1800207E00002086
:1026E000C714002008B50121082001F0EDFE4FF4C9
:1026F000C040ADF8000014208DF8030003208DF8D1
:1027000002006946934801F023FC4FF4C041914810
:1027100001F0CBFC08BD10B58E48006820F0704079
:102720008C4908600846006840F04050086001206D
:10273000894908608949C1F8B801042001F0FBF912
:10274000002085490860042001F0F5F90020834944
:10275000C1F8B80110BD10B57E48006820F0704087
:102760007C4908600846006840F04050086000203E
:102770007949091D08607949C1F8B401042001F0C4
:10278000DAF901207449091D08607449C1F8B401DF
:10279000042001F0D0F910BD10B500246D48006888
:1027A00020F070406B4908600846006840F0004027
:1027B000086001206849086001F0BDF901206749FF
:1027C000C1F8B80101F0B7F907E0601CC4B2FA2CF7
:1027D00003DDFFF7C0FF012010BD5F4880380068AF
:1027E0000028F2D15C49091D086000BFF4E710B56C
:1027F00000205949091D08605648006820F07040C3
:10280000544908600846006840F0405008600020C5
:102810005249C1F8B401022001F08DF901204E495E
:10282000091D0860022001F086F900204B49C1F81B
:10283000B801022001F07FF901204749086010BD6E
:1028400010B500204449091D08604248006820F086
:102850007040404908600846006840F040500860F9
:1028600001203E49C1F8B401022001F064F90120C1
:102870003949091D0860022001F05DF9002037493F
:10288000C1F8B80110BD70B504463248006820F0A8
:102890007040304908600846006840F040500860C9
:1028A00000202D49091D086000251DE0E00918B130
:1028B00001202949086002E00020274908606006DD
:1028C000040E022001F037F901202349091D086098
:1028D000022001F030F900202049C1F8B80102209F
:1028E00001F029F9681CC5B2082DDFDB70BD70B599
:1028F000054600241748006820F07040154908601C
:102900000846006840F000400860002617E00020FC
:102910001149091D0860022001F00DF901200F493D
:10292000C1F8B8016006040E0B488038006808B191
:10293000601CC4B2012001F0FEF8701CC6B2082E63
:10294000E5DB15B9FFF77CFF01E0FFF750FF2046FC
:1029500070BD0000000C0140B48121420080214282
:1029600030B502460B46002010E012F8014B6040E3
:10297000002109E000F001041CB18C2484EA60000D
:1029800000E040104C1CE1B20829F3DB1C1EA3F14F
:102990000105ABB2E9D130BD70B505460C46FFF775
:1029A000BAFE8820FFF76FFF00BFFFF7F5FE002893
:1029B000FBD12846FFF767FF00BFFFF7EDFE0028B9
:1029C000FBD12046FFF75FFF00BFFFF7E5FE0028C1
:1029D000FBD1FFF7C0FE052001F0D1F870BD10B5A6
:1029E00026212120FFF7D8FFFFF795FE8920FFF76A
:1029F0004AFF00BFFFF7D0FE0028FBD1052001F001
:102A00009AF800240EE0052C05D10020FFF76FFF97
:102A10002149085504E00120FFF769FF1E490855C8
:102A2000601CC4B2062CEEDBFFF795FE1A48007856
:102A30001A4908701848407848701748C0781849F3
:102A40000870154800794870052001F098F810BD0D
:102A500012484178007801EB0020AF2148434FF63F
:102A6000FF7190FBF1F02D380E4908700C48417849
:102A7000007801EB0020642148434FF6FF7190FB82
:102A8000F1F00949087000200449087048700449B1
:102A90000870487070470000880000208400002003
:102AA00086000020900000209100002010B5044610
:102AB00000BF8021494802F023FE0028F9D02146BA
:102AC000464802F0AFFD10BD10B540F22551434815
:102AD00002F02CFEE0B1414802F0A8FDC4B240482B
:102AE000008800F4004098B93D480088B0F5167F92
:102AF00008DA3B4801880088401C394A1080394870
:102B0000445405E03648008840F4004034490880C9
:102B100010BD10B586B004460121334801F0E1FC38
:102B20002E4802F043FC18208DF817004FF4805017
:102B3000ADF8140003208DF8160005A92B4801F00C
:102B400007FA04208DF81700ADF8140005A92848ED
:102B500001F0FEF935208DF8100001208DF81300EA
:102B600000208DF8110001208DF8120004A801F05A
:102B700026F900940020ADF80400ADF80600ADF889
:102B80000800ADF80C000C20ADF80A0069461348A7
:102B900002F04FFC012240F22551104802F0E1FC06
:102BA00001210E4802F0D1FC00200D4908800021CF
:102BB000104802F01DF906B010BD0AE000BF074939
:102BC000098801F040010029F9D00178034A918079
:102BD000401C01780029F1D17047000000500040EE
:102BE000920000207F2000203000100000100140E3
:102BF000001401400014004010B540F22551A048D7
:102C000002F094FD60B19E4802F010FDC4B29D48F0
:102C10009D49097844549C480078401C9A490870A2
:102C200010BD10B586B004460121142001F04CFC03
:102C30000121480401F055FC0220ADF814001020D9
:102C40008DF8170003208DF8160005A98F4801F0B4
:102C50007FF90420ADF8140018208DF8170005A99D
:102C60008B4801F075F90820ADF8140004208DF8A8
:102C7000170005A9864801F06BF90121480401F00D
:102C80004AFC00214FF4003001F045FC0194002083
:102C9000ADF80800ADF80A00ADF80C00ADF8100072
:102CA0000C20ADF80E0001A9754802F0C2FB2620E9
:102CB0008DF8000003208DF801008DF8020001203E
:102CC0008DF80300684601F07AF8012240F22551A0
:102CD0006B4802F046FC0121694802F036FC0020F6
:102CE0006C49086006B010BD70B505460E4601205F
:102CF0006849086000240CE000BF4021604802F0F1
:102D0000FFFC0028F9D0295D5D4802F08BFC601CB7
:102D1000C4B2B442F0DB00BF4021594802F0F0FCDD
:102D20000028F9D00020584908705A49086070BD41
:102D30002DE9F04107460D4653480678002400204F
:102D400028700A2000F01BFF4F48007886420FD100
:102D500076B100BF04E04B48005D3855601CC4B23A
:102D6000B442F8DB484800782870002046490870D3
:102D7000BDE8F0812DE9F047ADF5007D04460F4632
:102D80004FF48072444940A803F010FD4FF4807264
:102D90004249684603F00AFD4FF00008C24600268B
:102DA000FF25A94600BF0EE014F8010B80EA0508D4
:102DB0000AF1010000F0FF0A40A810F8080080EABC
:102DC00009051DF80890381EA7F101018FB2EBD15B
:102DD0002E464FF6FF7000EA062646EA0906304600
:102DE0000DF5007DBDE8F0877CB5002000900190D6
:102DF00021208DF8000003208DF8010000208DF8BF
:102E000002002A208DF8030000208DF80400012024
:102E10008DF8050006216846FFF7ACFF0446C01791
:102E200004EB1060000A8DF8060006216846FFF7E3
:102E3000A1FF0446C01704EB10600012A4EB0020B1
:102E4000C0B28DF80700082529466846FFF74CFFF9
:102E500013491448FFF76CFF0020134908807CBD1C
:102E600010B50F490F48FFF763FF0E480179C0788E
:102E700001EB00200A2190FBF1F00C49086010BD25
:102E8000004400402F250020980000200010014041
:102E90000008014084012242208A0008208B00089B
:102EA00099000020D3250020D400002094000020A9
:102EB0000246134610E010782A2805D01078202802
:102EC00002DB10787A2801DDFF20704710782C286B
:102ED00001D1481EC1B2521C0029ECD1D01AC0B297
:102EE000F3E710B50246012000E050430B1EA1F1AC
:102EF0000104E1B2F9D110BD2DE9F34F81B00746CD
:102F00003C4600200090834681460026804628E00B
:102F100020782D2802D148F00208641C20782C2843
:102F200002D020782A2800D11CE020782E2803D156
:102F300048F00108641C09E02078392802DC207878
:102F4000302803DA4FF0000900260BE008F00100FA
:102F500010B1701CC6B203E009F1010000F0FF09D6
:102F6000641CD5E700BF08F0020000B17F1C0025FB
:102F70000EE0A9F10100401BC1B20A20FFF7B1FF2A
:102F8000795D3039009A00FB01200090681CC5B2C1
:102F90004D45EEDB052E00DD052602980670002566
:102FA0000EE0701E401BC1B20A20FFF79AFF09F124
:102FB00001012944795C303900FB01BB681CC5B2B2
:102FC000B542EEDB31460A20FFF78BFF009901FB8B
:102FD00000BA08F0020008B1CAF1000A5046BDE884
:102FE000FE8F2DE9FC5F07468A464FF00008CDF8BA
:102FF00004A0FEA1019803F09CFB0646F07930384E
:1030000000F0FF0B03213046FFF752FF0546FF2D6E
:1030100004D070196946FFF76FFF38704FF0000950
:103020006CE0F2A1019803F084FB064600245CE00A
:10303000042000EB8400C1B23046FFF739FF05469B
:10304000FF2D09D070196946FFF756FFC1B208EB92
:103050008802B81C815400E049E0052000EB8400A0
:10306000C1B23046FFF724FF0546FF2D0AD0701984
:103070006946FFF741FFC1B208EB8802B81C104453
:10308000417000E033E0062000EB8400C1B230461E
:10309000FFF70EFF0546FF2D0AD070196946FFF7AE
:1030A0002BFF81B208EB8802B81C1044418000E07D
:1030B0001DE0072000EB8400C1B23046FFF7F8FEA8
:1030C0000546FF2D0AD070196946FFF715FFC1B2FA
:1030D00008EB8802B81C1044017100E007E008F119
:1030E000010000F0FF08601CC4B2042CA0DB00BF8C
:1030F000701C019009F1010000F0FF09D94590DB37
:10310000BDE8FC9F2DE9FC5F07468A464FF00008AA
:10311000CDF804A0B7A1019803F00BFB0646F079A7
:10312000303800F0FF0B03213046FFF7C1FE0546A3
:10313000FF2D04D070196946FFF7DEFE78704FF05E
:10314000000970E0ABA1019803F0F3FA06460024F1
:1031500060E0042000EB8400C1B23046FFF7A8FE17
:103160000546FF2D0AD070196946FFF7C5FEC1B2AA
:1031700008EB880207F13E00815400E04CE0052096
:1031800000EB8400C1B23046FFF792FE0546FF2DEA
:103190000BD070196946FFF7AFFEC1B208EB880289
:1031A00007F13E001044417000E035E0062000EBDE
:1031B0008400C1B23046FFF77BFE0546FF2D0BD0E1
:1031C00070196946FFF798FE81B208EB880207F193
:1031D0003E001044418000E01EE0072000EB840028
:1031E000C1B23046FFF764FE0546FF2D0BD07019C3
:1031F0006946FFF781FEC1B208EB880207F13E0085
:103200001044017100E007E008F1010000F0FF0840
:10321000601CC4B2042C9CDB00BF701C019009F13F
:10322000010000F0FF09D9458CDBBDE8FC9FF8B533
:1032300005460F4671A1384603F07BFA0646062183
:103240003046FFF735FE0446FF2C05D0301969469D
:10325000FFF752FE85F88B0007213046FFF728FE66
:103260000446FF2C05D030196946FFF745FE85F866
:103270008C0009213046FFF71BFE0446FF2C05D0C9
:1032800030196946FFF738FEC5F8A000F8BD2DE9F2
:10329000F843054688465BA1404603F04AFA0646D5
:1032A00002213046FFF704FE0446FF2C05D03019FA
:1032B0006946FFF721FE85F89900002713E0F81C06
:1032C000C1B23046FFF7F4FD0446FF2C08D0301998
:1032D0006946FFF711FEC1B205F18D00C15500E04E
:1032E00003E0781CC7B20C2FE9DB00BF0F2130468A
:1032F000FFF7DEFD0446FF2C05D030196946FFF7C5
:10330000FBFDA5F89A0010213046FFF7D1FD0446D9
:10331000FF2C05D030196946FFF7EEFDA5F89C009B
:1033200011213046FFF7C4FD0446FF2C05D03019AB
:103330006946FFF7E1FDA5F89E00BDE8F8832DE999
:10334000F04F85B00446884630A1404603F0F1F9BD
:10335000074601213846FFF7ABFD0546FF2D23D078
:10336000781904A9FFF7C8FD82469DF810100A20BD
:10337000FFF7B7FDBAFBF0F642F21070B6FBF0F0C3
:10338000C1B27E2001556420B6FBF0F06421B0FB91
:10339000F1F201FB12017F2001556420B6FBF0F130
:1033A00000FB11618020015503213846FFF780FDA5
:1033B0000546FF2D5BD0781904A9FFF79DFD064651
:1033C0009DF81000801CC1B20A20FFF78AFDB6FBF1
:1033D000F0F044F8810F9DF81000801CC1B20A2063
:1033E000FFF77FFDB6FBF0F114E0000024475047E3
:1033F00053560000244244475356000024474E478A
:103400004741000024474E475341000024474E5295
:103410004D43000000FB116A504605F0A7F98146B4
:103420009DF81000C0F10500C1B20A20FFF759FD58
:10343000009005F09BF98346494605F0ABF98246BA
:10344000FE4905F07DF8052102900A20FFF749FDAD
:10345000216800FB01FA504605F088F901900299B5
:1034600005F00CF8039005F049F944F881090421AE
:103470003846FFF71DFD0546FF2D02D0785D84F824
:10348000850005213846FFF713FD0546FF2D45D081
:10349000781904A9FFF730FD06469DF81000801C3E
:1034A000C1B20A20FFF71DFDB6FBF0F044F8860F0D
:1034B0009DF81000801CC1B20A20FFF712FDB6FB78
:1034C000F0F100FB116A504605F050F981469DF875
:1034D0001000C0F10500C1B20A20FFF702FD009004
:1034E00005F044F98346494605F054F98246D3492C
:1034F00005F026F8052102900A20FFF7F2FC21686A
:1035000000FB01FA504605F031F90190029904F0F0
:10351000B5FF039005F0F2F844F886090621384615
:10352000FFF7C6FC0546FF2D02D0785D84F88A00BF
:1035300009213846FFF7BCFC0546FF2D1ED078193F
:1035400004A9FFF7D9FC064642F21070B6FBF0F072
:10355000C1B27D2001556420B6FBF0F06421B0FBC0
:10356000F1F201FB12017C2001556420B6FBF0F161
:1035700000FB116000F5FA60A4F87A0005B0BDE820
:10358000F08FF8B504460D46ADA1284603F0D1F8FA
:10359000064607213046FFF78BFC0746FF2F16D063
:1035A000F0196946FFF7A8FCA4F8A4009DF80000F4
:1035B00003280CDA9DF80000C0F10300C1B20A2014
:1035C000FFF78FFCB4F8A4104843A4F8A400F8BD9A
:1035D00070B504460D4629462046FFF702FD2946F0
:1035E0002046FFF78FFD29462046FFF720FE29469B
:1035F0002046FFF74CFE29462046FFF7A0FE29464D
:103600002046FFF7BEFF70BD70B50025002604E020
:10361000681C85B2052000F0B2FA8B48008800F4DF
:10362000004008B9642DF3DB642D19DA8648008860
:10363000C0F30E0500240CE08448005D832800D10F
:1036400009E08248005D842801D1032603E0601C64
:1036500084B2AC42F0DB00BFAC4202D1022600E0F3
:103660000126002078490880304670BD10B502461A
:1036700000200BE000BF764B1B8803F04003002BBB
:10368000F9D0135C724CA380431C98B28842F1DBE2
:1036900010BD70B505466F4C4AF2A01020804FF463
:1036A000806060800520207100206071A57101207C
:1036B000E071207961794840A1794840E17948403A
:1036C000207240F60D20A4F809000B212046FFF7D8
:1036D000CDFFC82000F053FA5F4951F82500FFF7ED
:1036E00018FAFFF791FF70BD70B505462E46594C8C
:1036F0004FF47F4000EA152040EA15604FF47F0147
:1037000001EA052108434FF07F4101EA056140EAE3
:1037100001064AF2A01020804FF4E060608065202E
:10372000207101206071C4F80660A072207961796F
:103730004840D4F8061080EA1160C1F307414840C0
:10374000E188C1F307214840A1794840A17A484067
:10375000E07240F60D20A0810E212046FFF786FF83
:10376000FFF752FF70BD70B505463A4C4AF2A01003
:1037700020804FF4407060800E2020716571012020
:10378000A071207961794840A1794840E07140F604
:103790000D2020810A212046FFF768FFFFF734FF44
:1037A00070BDF8B52D49D1F8860004F0DFFF04465E
:1037B0002B49204604F0C4FE0446054604F032FEC0
:1037C0000646264890F88A0032460B4625A100900E
:1037D0002A4802F035FD2A4804602049D1F88100CA
:1037E00004F0C4FF04461E49204604F0A9FE044626
:1037F000054604F017FE0646184890F88500324644
:103800000B4620A100901D4802F01AFD23480460D9
:103810001349204604F094FE0446054604F002FED7
:1038200006460E4890F88A0032460B461CA10090CE
:10383000214802F005FD094940E000000000704207
:1038400024474E5654470000920000207F2000205D
:1038500000500040D7220020208C00089028002033
:103860000050C3474C6F6E6769747564653A252EC6
:1038700035662025316320200D0A200038290020DC
:10388000AC0000204C617469747564653A252E356E
:10389000662025316320202000000000B0000020B9
:1038A0004C6F6E6769747564653A252E3566202500
:1038B000316320202000000092290020D1F8A000D0
:1038C00004F03CFF04465349204604F039FE044608
:1038D000054604F0A7FD064632460B464EA1534866
:1038E00002F0AEFC524804605249B1F8A40004F062
:1038F0003DFF04465049204604F022FE044605469A
:1039000004F090FD064632460B464CA1474802F0B3
:1039100097FC4F480460474890F89900032809DC59
:10392000444890F899004B4951F820204AA13F485B
:1039300002F086FC3F4890F88C204AA13B4802F0F8
:103940007FFC3C480078642190FBF1F201FB1205FA
:103950002A464BA1354802F073FC204604F0B2FE23
:103960004E49086033484078642190FBF1F201FB36
:1039700012052A464AA12D4802F062FC204604F0B6
:10398000A1FE4E4908602B4890F87D000090294820
:1039900090F87C30B0F87A2049A1244802F050FC1D
:1039A000244890F880000090224890F87F3090F8EA
:1039B0007E204AA11D4802F043FCF8BD70B54E4878
:1039C000008800F4004020B34B480088C0F30E0587
:1039D000002405E04948005D49490855601C84B24F
:1039E000AC42F7DB0020444908804549085511489E
:1039F000FFF7EEFDFFF7D5FE002404E000203F496D
:103A00000855601C84B2B4F5617FF7DB00203A49A9
:103A1000088070BD00002041416C74697475646554
:103A20003A252E31666D20202020200038290020E4
:103A3000C00000209028002000007A445370656583
:103A4000643A252E33666B6D2F68202020202000DD
:103A5000B40000209C000020466978204D6F64650A
:103A60003A2573004750532B42442056616C6964D9
:103A700020736174656C6C6974653A25303264003A
:103A80004750532056697369626C65207361746591
:103A90006C6C6974653A253032640000C400002003
:103AA00042442056697369626C6520736174656C69
:103AB0006C6974653A25303264000000C80000204B
:103AC00055544320446174653A253034642F2530C1
:103AD00032642F25303264202020000055544320CA
:103AE00054696D653A253032643A253032643A259E
:103AF0003032642020200000920000207F2000202F
:103B00003826002010B56FF0040000F0A2F92E480E
:103B100000682E49B0FBF1F02D4908700846007886
:103B200000EB4001C1EBC0104FF6FF7101EAC0008D
:103B30002849088010BD0146254A12784A434FF0B3
:103B4000E0235A6100229A611A46126942F001028A
:103B50001A6100BF4FF0E022106900F001021AB1B3
:103B600000F48032002AF5D04FF0E022126922F0F2
:103B700001024FF0E0231A6100229A61704701466A
:103B8000144A12884A434FF0E0235A6100229A6196
:103B90001A46126942F001021A6100BF4FF0E0229A
:103BA000106900F001021AB100F48032002AF5D049
:103BB0004FF0E022126922F001024FF0E0231A6177
:103BC00000229A61704700001000002000127A0065
:103BD000CC000020CE000020014600BF704700BF8F
:103BE0005E4A128802F04002002AF9D0C2B25B4B52
:103BF0001B1D1A80704710B586B00446012144F29F
:103C0000040000F061FC4FF40070ADF814000320D4
:103C10008DF8160018208DF8170005A9504800F0FF
:103C200097F94FF48060ADF8140004208DF8170068
:103C300005A94B4800F08CF925208DF800000320E1
:103C40008DF801008DF8020001208DF80300684610
:103C500000F0B5F801940020ADF80800ADF80A00B6
:103C6000ADF80C00ADF810000C20ADF80E0001A965
:103C70003C4801F0DEFB012240F22551394801F0B9
:103C800070FC0121374801F060FC06B010BD10B592
:103C900040F22551334801F049FD10B3314801F09D
:103CA000C5FCC4B23048008800F40040C8B92E48B2
:103CB000008800F4804060B10A2C03D000202A491B
:103CC000088020E02848008840F400402649088009
:103CD00019E00D2C06D12448008840F48040224988
:103CE000088010E020480088C0F30D001F490C54E4
:103CF0001D480088401C1C49088008460088C728C9
:103D000001DD0020088010BD0FB438B505A8009073
:103D10001748009A049902F075FA002000901448A0
:103D200002F019FD054600BF0E48008800F0400073
:103D30000028F9D000240CE00D48005D0949091D58
:103D4000088000BF0748008800F040000028F9D034
:103D5000641CAC42F0D338BC5DF814FB0048004052
:103D60000008014000380140D4000020C029002094
:103D7000882A00200948804709480047FEE7FEE7F7
:103D8000FEE7FEE7FEE7FEE7FEE7FEE7FEE7FEE70B
:103D900004480549054A064B704700006B060008B9
:103DA00031010008E82B0020E8310020E82D002038
:103DB000E82D002031490143314A1160704770B548
:103DC000002100230F22C47804B32D4C246804F48E
:103DD000E064C4F5E064210AC1F10403CA404478F8
:103DE00004FA03F18478144021430901254C067834
:103DF000A155047804F01F050124AC4005786D112D
:103E0000AD0005F1E025C5F8004109E0047804F0B3
:103E10001F050124AC401C4D0678761145F826405C
:103E200070BD1A4A0A400243154B1B1F1A607047A7
:103E300039B1134A121D12680243114B1B1D1A603F
:103E400006E00F4A121D126882430D4B1B1D1A60BB
:103E50007047042808D14FF0E021096941F00401BE
:103E60004FF0E022116107E04FF0E021096921F0F5
:103E700004014FF0E0221161704700000000FA05D4
:103E80000CED00E000E400E080E100E080FFFF1FB7
:103E900010B50446CC48844208D10121042000F02A
:103EA0002DFB0021042000F029FB46E0C748844296
:103EB00008D10121082000F021FB0021082000F09A
:103EC0001DFB3AE0C248844208D10121102000F0D5
:103ED00015FB0021102000F011FB2EE0BD488442AC
:103EE00008D10121202000F009FB0021202000F052
:103EF00005FB22E0B848844208D10121402000F0AF
:103F0000FDFA0021402000F0F9FA16E0B34884429F
:103F100008D10121802000F0F1FA0021802000F07A
:103F2000EDFA0AE0AE48844207D10121801500F085
:103F3000E5FA0021A01500F0E1FA10BD10B501214D
:103F4000084600F0DBFA0021012000F0D7FA10BD8E
:103F50002DE9F04102460025002600200023002420
:103F6000002791F803C00CF00F0591F803C00CF086
:103F7000100CBCF1000F03D091F802C04CEA05050B
:103F800091F800C0BCF1000F31D0146800202BE084
:103F90004FF0010C0CFA00F3B1F800C00CEA030674
:103FA0009E4220D183004FF00F0C0CFA03F7BC4364
:103FB00005FA03FC4CEA040491F803C0BCF1280F95
:103FC00006D14FF0010C0CFA00FCC2F814C00AE054
:103FD00091F803C0BCF1480F05D14FF0010C0CFA69
:103FE00000FCC2F810C0401C0828D1D31460B1F8FE
:103FF00000C0BCF1FF0F34DD546800202EE000F15A
:10400000080C4FF0010808FA0CF3B1F800C00CEAF4
:1040100003069E4221D183004FF00F0C0CFA03F7E8
:10402000BC4305FA03FC4CEA040491F803C0BCF15C
:10403000280F05D100F1080C08FA0CF8C2F814801A
:1040400091F803C0BCF1480F07D100F1080C4FF004
:10405000010808FA0CF8C2F81080401C0828CED3DA
:104060005460BDE8F0814FF6FF710180022181703C
:104070000421C17070470246002093680B400BB1C9
:10408000012000E0002070470146886880B2704738
:1040900002460020D3680B400BB1012000E0002055
:1040A00070470146C86880B270470161704741613E
:1040B00070470AB1016100E041617047C16070471B
:1040C0004FF480320A438261816182618269826930
:1040D000704702460020434B18684FF68073184023
:1040E00040EA021008433F4B186070473E49C861E0
:1040F0007047F0B50A46002300240021002500F097
:104100000046B6F1004F02D1364EF16901E0354E5E
:104110007168C0F3034583B200F44016B6F5401F42
:1041200008D121F070612F4E766826F070662D4F11
:104130007E6012E000F48016B6F5801F06D10326DB
:1041400006FA05F4A14341F0706106E0460D360120
:1041500003FA06F6B14341F0706122B1460D360113
:1041600003FA06F6314300F00046B6F1004F02D1E3
:104170001C4EF16101E01B4E7160F0BD30B50022B4
:104180008B071C0F0F2303FA04F2164B08338C1015
:1041900053F824309343134C08348D1044F82530E1
:1041A00023468C1053F824308C07240F00FA04F4B3
:1041B00023430C4C08348D1044F8253030BD0A4997
:1041C000DC3108607047000000080140000C01402D
:1041D000001001400014014000180140001C014083
:1041E000002001400000014000002042DF4800683C
:1041F00040F00100DD49086008464068DC4908409D
:10420000DA49486008460068DA490840D74908603A
:104210000846006820F4802008600846406820F4C2
:10422000FE0048604FF41F0088607047CF4909685E
:1042300021F48031CD4A11601146096821F48021B2
:104240001160B0F5803F03D0B0F5802F0ED106E0AD
:10425000C649096841F48031C44A116007E0C34986
:10426000096841F4A021C14A116000E000BF00BF0D
:10427000704710B501460022002300204A11012A90
:1042800002D1BA4C236806E0022A02D1B74C236A55
:1042900001E0B64C636A01F01F02012494401C4007
:1042A0000CB1012000E0002010BD38B500200090C6
:1042B0000024002500BF3120FFF7DBFF05460098F2
:1042C000401C00900098B0F5A06F01D0002DF2D0F6
:1042D0003120FFF7CEFF08B1012400E00024204682
:1042E00038BD01460020A14A106820F0F80040EADD
:1042F000C10010607047A049086070470246002066
:104300009A4B586820F47C1042EA01031843974BFB
:104310005860704798490866704701460020934AE4
:10432000506820F003000843506070478F48406891
:1043300000F00C007047014600208C4A506820F0C5
:10434000F00008435060704701460020874A5068DB
:1043500020F4E06008435060704701460020834A23
:10436000506820F4605040EAC1005060704729B1A5
:104370007E4A527A02437D4B5A7204E07B4A527A5B
:1043800082437A4B5A7270477B49D8310860704734
:1043900001460020754A506820F4404008435060B0
:1043A00070470021714A20321170704A82F8201043
:1043B000012802D004280AD104E001216B4A2032EE
:1043C000117005E00521694A2032117000E000BF3C
:1043D00000BF70476949086070476449096A014332
:1043E000624A11627047654944390860704730B5C8
:1043F00000210022002400235C4D6D6805F00C01B3
:1044000021B1042905D0082923D105E05C4D0560C0
:1044100022E05B4D05601FE0544D6D6805F470129D
:10442000524D6D6805F48034022505EB92421CB9AB
:10443000544D554305600BE04C4D6D6805F4003557
:104440001DB1504D5543056002E04D4D554305608B
:1044500002E04B4D056000BF00BF444D6D6805F0A4
:10446000F0010909484D6B5C0568DD4045603F4D32
:104470006D6805F4E061090A434D6B5C4568DD40F9
:1044800085603A4D6D6805F46051C90A3E4D6B5C1C
:104490004568DD40C560354D6D6805F44041890BC8
:1044A0003A4D6B5CC568B5FBF3F5056130BD29B1CC
:1044B0002E4A526902432D4B5A6104E02B4A52693D
:1044C00082432A4B5A61704729B1284A92690243B4
:1044D000264B9A6104E0254A92698243234B9A61F4
:1044E000704729B1214AD2690243204BDA6104E0C6
:1044F0001E4AD26982431D4BDA61704729B11B4ABB
:10450000D2680243194BDA6004E0184AD268824349
:10451000164BDA60704729B1144A12690243134BF3
:104520001A6104E0114A12698243104B1A61704704
:1045300012494039086070470F49C86470470B49F9
:10454000C87170470948406A40F080700749486266
:10455000704701460020054A92680A400AB10120CE
:1045600000E0002070470149887270470010024047
:104570000000FFF8FFFFF6FE0000424280044242C6
:1045800000127A0000093D00D6000020E60000205D
:1045900010B50446FE48844208D10121C014FFF73B
:1045A000ADFF0021E014FFF7A9FFC4E0B4F1804F94
:1045B00008D101210846FFF7AEFF00210120FFF7D7
:1045C000AAFFB8E0F348844208D101210220FFF796
:1045D000A2FF00210220FFF79EFFACE0EE488442DC
:1045E00008D101210420FFF796FF00210420FFF7E6
:1045F00092FFA0E0E948844208D101210820FFF79A
:104600008AFF00210820FFF786FF94E0E4488442F7
:1046100008D101211020FFF77EFF00211020FFF7B5
:104620007AFF88E0DF48844208D101212020FFF78B
:1046300072FF00212020FFF76EFF7CE0DA48844201
:1046400008D101214014FFF759FF00216014FFF742
:1046500055FF70E0D548844209D10121C804FFF715
:104660004DFF00214FF40020FFF748FF63E0D048E2
:10467000844209D101210805FFF740FF00214FF4D2
:104680008010FFF73BFF56E0CA48844209D1012160
:104690004805FFF733FF00214FF40010FFF72EFF0E
:1046A00049E0C548844208D101214020FFF733FF8B
:1046B00000214020FFF72FFF3DE0C048844208D191
:1046C00001218020FFF727FF00218020FFF723FF33
:1046D00031E0BB48844208D101218015FFF71BFF60
:1046E0000021A015FFF717FF25E0B648844209D145
:1046F00001210804FFF702FF00214FF48030FFF78B
:10470000FDFE18E0B048844209D101214804FFF7BA
:10471000F5FE00214FF40030FFF7F0FE0BE0AB4850
:10472000844208D101218804FFF7E8FE00214FF4FC
:104730008020FFF7E3FE10BD00220288944B9842D0
:104740000ED0994B98420BD0B0F1804F08D0914BCE
:10475000984205D0904B984202D0904B984204D199
:104760004FF68F731A404B881A438D4B984207D0EF
:104770008C4B984204D04FF6FF431A40CB881A4323
:1047800002808B8883850B880385814B98420BD0F0
:10479000854B984208D08B4B984205D08A4B984263
:1047A00002D08A4B984201D10B7A0386012383827F
:1047B000704770B5002400220023058C4FF6FE766A
:1047C00035400584028C8388048B4FF68F752C400E
:1047D000B51E2C400D882C43751E2A400D892A4396
:1047E0004D882A436A4DA8420BD06F4DA84208D08D
:1047F000744DA84205D0744DA84202D0734DA84212
:1048000013D14FF6F7752A404D892A434FF6FB75B1
:104810002A408D882A434FF6FF652B404FF6FF55FF
:104820002B408D892B43CD892B4383800483CD88F6
:104830008586028470BD70B5002400220023058C9B
:104840004FF6EF7635400584028C8388048B48F65A
:10485000FF752C404FF6FF452C400D884FF6FF7634
:1048600006EA05252C434FF6DF752A400D8906EA36
:1048700005152A434D8806EA05152A43444DA842EA
:1048800002D0494DA8421DD14FF67F752A404D896F
:104890004FF6FF7606EA05152A434FF6BF752A4004
:1048A0008D8806EA05152A434FF6FF352B404FF257
:1048B000FF752B408D8906EA85052B43CD8906EAD5
:1048C00085052B4383800483CD880587028470BDD2
:1048D00070B5002400220023058C4FF6FF6635409A
:1048E0000584028C8388848B4FF68F752C404FF69D
:1048F000FC752C400D882C434FF6FF552A400D893E
:104900004FF6FF7606EA05252A434D8806EA052577
:104910002A431F4DA84202D0234DA8421DD14FF279
:10492000FF752A404D894FF6FF7606EA05252A4392
:104930004FF6FF352A408D8806EA05252A434EF6B4
:10494000FF752B404DF6FF752B408D8906EA051546
:104950002B43CD8906EA05152B4383808483CD88BC
:104960008587028470BD70B5002200230024058C69
:104970004EF6FF7635400584038C8488828B48F69A
:10498000FF752A404FF6FF452A400D8820E00000C1
:10499000002C01400004004000080040000C0040D2
:1049A000001000400014004000340140004C014061
:1049B000005001400054014000180040001C00401D
:1049C00000200040004001400044014000480140F8
:1049D0004FF6FF7606EA05252A434DF6FF752B4074
:1049E0000D8906EA05352B434D8806EA05352B432C
:1049F000FA4DA84202D0FA4DA84208D14BF6FF75F5
:104A00002C408D894FF6FF7606EA85152C4384806D
:104A10008283CD88A0F84050038470BD828B4FF212
:104A2000FF331A408283828B4FF6FF7303EA012320
:104A30001A4382837047F0B50C46154600220021C8
:104A40000026078C4EF6FF7C07EA0C070784828B52
:104A5000018C4FF6FF7707EA043640F6FF473A40ED
:104A60004FF6FF7707EA05273A434FF6FF7707EA45
:104A700003373A43D94FB8420ED0D94FB8420BD082
:104A8000B0F1804F08D0D74FB84205D0D64FB842CA
:104A900002D0D64FB84206D14DF6FF77394046F4E2
:104AA0008057394305E047F6FF57394044F48057B3
:104AB000394382830184F0BD828B4FF6F3731A4031
:104AC0008283828B0A4382837047F0B50C46154679
:104AD000002200210026078C4FF6FF6C07EA0C0726
:104AE0000784828B018C4FF6FF7707EA04264FF686
:104AF0000C773A404FF6FF7707EA03172F433A4304
:104B0000B64FB8420ED0B64FB8420BD0B0F1804F7E
:104B100008D0B44FB84205D0B34FB84202D0B34F1B
:104B2000B84206D14FF6FF57394046F480773943F3
:104B300005E04FF2FF57394044F4807739438283D0
:104B40000184F0BD028B4FF2FF331A400283028BC7
:104B50004FF6FF7303EA01231A4302837047F0B54F
:104B60000C461546002200210026078C4FF6EF7CEC
:104B700007EA0C070784028B018C4FF6FF7707EAE0
:104B8000041640F6FF473A404FF6FF7707EA03372F
:104B90003A434FF6FF7707EA05273A438F4FB8426B
:104BA0000ED08F4FB8420BD0B0F1804F08D08D4F50
:104BB000B84205D08C4FB84202D08C4FB84206D1D3
:104BC0004FF6DF77394046F01007394305E04FF6DE
:104BD0005F77394044F01007394302830184F0BD08
:104BE000028B4FF6F3731A400283028B0A4302834F
:104BF0007047F0B50C46154600220021068C4FF692
:104C0000FE773E400684028B018C4FF60C763240D4
:104C10007E1C06EA03162E433243704EB0420ED07D
:104C20006F4EB0420BD0B0F1804F08D06D4EB04205
:104C300005D06D4EB04202D06C4EB04206D14FF658
:104C4000FD76314044F00106314305E04FF6F5763C
:104C5000314044F00106314302830184F0BD70B558
:104C600005460C465D4885420ED05D4885420BD016
:104C7000B5F1804F08D05B48854205D05A4885423F
:104C800002D05A48854200D100E000BF208850B9C8
:104C90002389A28861882846FFF7ABFFE188284670
:104CA000FFF79EFF25E0208804280AD12389A288E7
:104CB00061882846FFF753FFE1882846FFF742FF47
:104CC00017E0208808280AD12389A288618828460D
:104CD000FFF7FBFEE1882846FFF7EEFE09E0238997
:104CE000A28861882846FFF7A6FEE1882846FFF7DC
:104CF00095FE70BD2DE9F04105460C4600260127C2
:104D0000608808B9022600E00026A088012801D1A9
:104D1000022700E001272088A0B92389A2886188A2
:104D20002846FFF766FFE1882846FFF759FF2389E9
:104D30003A4631462846FFF712FFE1882846FFF73A
:104D400001FF13E02389A28861882846FFF707FF47
:104D5000E1882846FFF7F6FE23893A463146284681
:104D6000FFF747FFE1882846FFF73AFFBDE8F081EB
:104D70000A884B881A438B881A43CB881A430B89BD
:104D80001A434B891A438B891A43A0F84420704771
:104D90004FF6FF71818000210180C1804180017246
:104DA00070470021018041808180C1800181418163
:104DB0008181C18170470021018041800121818072
:104DC0000021C180018170470021018041808180E4
:104DD000C18001814181818170470000002C014028
:104DE000003401400004004000080040000C004076
:104DF00021B1028842F00102028004E002884FF6ED
:104E0000FE731A400280704731B1B0F8442042F47A
:104E10000042A0F8442005E0B0F84420C2F30E029E
:104E2000A0F8442070471AB183890B43838102E0C4
:104E300083898B43838170478182704741EA0203F3
:104E4000A0F8483070471AB183890B43838102E090
:104E500083898B438381704701894FF6F872114033
:104E6000018170470A46002101894FF68F7319406E
:104E700011430181704730B504460D46294620464E
:104E8000FFF7F0FF208940F00700208130BD2DE9B9
:104E9000F04104460D4616461F46602D06D13B469E
:104EA000012231462046FFF75AFE05E03B4601222B
:104EB00031462046FFF79DFE29462046FFF7D2FFE8
:104EC000208940F007002081BDE8F08130B50C4614
:104ED00000210189C9B24FF6FF7505EA0325154384
:104EE00025432943018130BD2DE9F04105460E4699
:104EF00017469846002443463A4631462846FFF76F
:104F0000E5FF2C894FF6F870044044F007044FF693
:104F10008F70044044F070042C81BDE8F081F0B53E
:104F200004460D4616461F463B4632462946204655
:104F3000FFF7CCFF208940F480402081F0BD01853F
:104F4000828270470A46002101884FF68F7319400C
:104F5000114301807047F0B50C4615461E460021EE
:104F6000002200230189028B038C4FF6F877394029
:104F700021434FF6FC473A4040F201173A434FF6BF
:104F8000DD773B404FF6FF7707EA06172F433B4399
:104F9000018102830384F0BD0A460021018B4FF694
:104FA0008F7319401143018370470A460021018B1A
:104FB00048F6FF7319404FF6FF7303EA02231943C3
:104FC000018370470A460021818B4FF68F73194089
:104FD0001143818370470A460021818B48F6FF7395
:104FE00019404FF6FF7303EA022319438183704788
:104FF00021B1028842F08002028004E002884FF66C
:105000007F731A400280704721B1828842F0040207
:10501000828004E082884FF6FB731A4082807047DA
:1050200021B1828842F00802828004E082884FF633
:10503000F7731A408280704721B1828842F00102E2
:10504000828004E082884FF6FE731A4082807047A7
:105050000A460021018B4FF6F77319401143018373
:1050600070470A460021018B4FF2FF7319404FF63B
:10507000FF7303EA02231943018370470A460021A4
:10508000818B4FF6F77319401143818370470A46AD
:105090000021818B4FF2FF7319404FF6FF7303EA33
:1050A00002231943818370470A460021018B4FF682
:1050B000FB7319401143018370470A460021018B9D
:1050C0004FF6FF3319404FF6FF7303EA02231943EB
:1050D000018370470A460021818B4FF6FB7319400C
:1050E0001143818370470A460021818B4FF6FF33BD
:1050F00019404FF6FF7303EA022319438183704777
:105100000A460021018B4FF67F731940114301833A
:1051100070470A460021018BC1F30E014FF6FF7361
:1051200003EA02231943018370470A460021818B59
:105130004FF67F7319401143818370470A4600215F
:10514000818BC1F30E014FF6FF7303EA022319436B
:10515000818370470A460021018C4FF6FD73194088
:105160001143018470470A460021018C4FF6F77302
:1051700019401143018470470A460021018C4FF603
:10518000DF7319404FF6FF7303EA021319430184DA
:1051900070470A460021018C4FF67F7319404FF685
:1051A000FF7303EA02131943018470470A46002182
:1051B000018C4FF6FF5319404FF6FF7303EA0223A9
:1051C0001943018470470A460021018C4FF2FF7396
:1051D00019404FF6FF7303EA022319430184704715
:1051E0000A460021018C4DF6FF7319404FF6FF73FC
:1051F00003EA023319430184704730B500230124C8
:105200008C40A3B2048C9C430484048C02FA01F504
:10521000ADB22C43048430BD30B5002304248C404F
:10522000A3B2048C9C430484048C02FA01F5ADB251
:105230002C43048430BD70B503460020002418467A
:10524000183001258D40ACB21D8CA5431D8409B1D9
:10525000082909D100EB6100056825F0700505609B
:105260000568154305600EE00D1FC5F34E05284483
:10527000056825F4E045056005684FF6FF7606EA07
:1052800002263543056070BD21B1028842F002025A
:10529000028004E002884FF6FD731A4002807047D6
:1052A00021B1028842F00402028004E002884FF635
:1052B000FB731A400280704721B1828842F080025D
:1052C000828004E082884FF67F731A4082807047A4
:1052D00002884FF6F7731A40028002880A43028060
:1052E000704782884FF68F731A40828082880A4303
:1052F0008280704702894FF6F8731A400281028952
:105300000A430281704702894FF67F731A40028177
:1053100002890A4302817047818470478185704702
:10532000818670470187704781877047A0F84010D9
:10533000704702884FF6FF431A40028002880A43F2
:10534000028070470146888E70470146088F70477B
:105350000146888F70470146B1F84000704701460A
:10536000888C70470146088D704702460020138ADA
:105370000B400BB1012000E000207047CA430282BD
:10538000704730B50246002000230024158A05EA44
:105390000103958905EA010413B10CB1012000E075
:1053A000002030BDCA4302827047000010B5044699
:1053B000FB48844209D101218803FFF79FF80021AF
:1053C0004FF48040FFF79AF832E0F648844209D162
:1053D00001214804FFF79FF800214FF40030FFF748
:1053E0009AF825E0F048844209D101218804FFF7AA
:1053F00092F800214FF48020FFF78DF818E0EB4879
:10540000844209D10121C804FFF785F800214FF437
:105410000020FFF780F80BE0E548844208D1012125
:105420000805FFF778F800214FF48010FFF773F8B4
:1054300010BD2DE9F04786B005460E460024A24671
:1054400000BFA1460027B08900B100BF2F462C8ABB
:105450004CF6FF700440F08804432C82AC894EF671
:10546000F3100440B088318908437189084304432C
:10547000AC81AC8A4FF6FF400440B0890443AC8253
:1054800001A8FEF7B4FFC648874202D1DDF810A09C
:1054900001E0DDF80CA0A88900F4004040B10AEB5F
:1054A000CA0000EB0A1031684900B0FBF1F807E0D0
:1054B0000AEBCA0000EB0A1031688900B0FBF1F872
:1054C0006420B8FBF0F004012009642101FB10897D
:1054D000A88900F4004040B1322000EBC900B0FBC5
:1054E000F1F000F00700044308E0322000EB09105F
:1054F0006421B0FBF1F000F00F0004432C8106B0F2
:10550000BDE8F0874FF41651016000218180C18011
:1055100001810C21418100218181704710B5024633
:105520000020108A4FF2FF0318400B884C88234359
:105530008C882343CC8823431843108210BD00215C
:10554000018041808180C180704721B1828942F40D
:105550000052828104E082894DF6FF731A408281F5
:105560007047F0B50346002400260025002040F6D1
:105570006A17B94200D100BF1846C1F3421401F0C6
:105580001F06012707FA06F5012C01D10C3004E0B3
:10559000022C01D1103000E014301AB107682F43FB
:1055A000076002E00768AF430760F0BD1AB1838A65
:1055B0000B43838202E0838A8B4383827047028A93
:1055C0004FF6F0731A400282028A0A430282704741
:1055D00082894FF2FF731A40828182890A43828155
:1055E000704721B1828942F00202828104E08289FF
:1055F0004FF6FD731A4082817047028A4FF6DF73BF
:105600001A400282028A0A430282704721B1028A4A
:1056100042F48042028204E0028A4BF6FF731A4091
:1056200002827047C1F30802828070470146888871
:10563000C0F308007047818941F001018181704702
:10564000028BD2B20283028B42EA012202837047AC
:10565000028B02F47F420283028B0A43028370476B
:1056600021B1828A42F02002828204E0828A4FF6CF
:10567000DF731A408282704721B1828A42F01002A1
:10568000828204E0828A4FF6EF731A40828270476A
:1056900021B1828A42F00802828204E0828A4FF6B7
:1056A000F7731A408282704721B1828942F4004226
:1056B000828103E08289C2F30E028281704721B1A8
:1056C000828A42F40062828204E0828A4FF2FF738F
:1056D0001A4082827047828A4FF6FB731A40828298
:1056E000828A0A438282704721B1828A42F0020292
:1056F000828204E0828A4FF6FD731A4082827047EC
:1057000002460020B1F5007F00D100BF13880B4096
:105710000BB1012000E00020704701F40072B2F5E7
:10572000007F00D100BFCA430280704770B50246B7
:10573000002400230025002040F66A16B14200D163
:1057400000BFC1F3421501F01F03012606FA03F35F
:10575000012D02D19689334006E0022D02D1168A2E
:10576000334001E0968A33400C12012606FA04F415
:105770001688344013B10CB1012000E0002070BD48
:1057800010B50022002340F66A14A14200D100BFE8
:105790000A1201249440A3B2DC43048010BD00002F
:1057A000003801400044004000480040004C0040E8
:1057B0000050004010B50446FA48844208D1012147
:1057C0004015FEF79BFE00216015FEF797FE17E0DF
:1057D000F548844208D101210015FEF78FFE002113
:1057E0002015FEF78BFE0BE0F048844208D1012122
:1057F000C803FEF783FE00214FF40040FEF77EFE53
:1058000010BD30B50246002000235068E84C20400F
:105810000D790C6844EA0524204350609068E54CFB
:105820002040D1E902542C434D7944EA45042043F9
:105830009060D06A20F470000C7C641EE4B22343B4
:1058400040EA0350D06230BD002101600171417116
:105850008160C16001210174704721B1826842F00A
:105860000102826003E0826822F0010282607047D8
:1058700021B1826842F48072826003E0826822F47F
:1058800080728260704710B50023CBB21AB14468B1
:105890001C43446002E044689C43446010BD81683E
:1058A00041F0080181607047014600208A6802F0DB
:1058B00008020AB1012000E000207047816841F031
:1058C000040181607047014600208A6802F00402EA
:1058D0000AB1012000E00020704721B1826842F443
:1058E000A002826003E0826822F4A0028260704716
:1058F000014600208A6802F480020AB1012000E01B
:105900000020704710B50A4600210023416821F4A9
:105910006041531E41EA4331416010BD21B14268EC
:1059200042F40062426003E0426822F40062426096
:105930007047F0B504460D4600200021092D11DD09
:10594000E068A5F10A0606EB4607072606FA07F106
:105950008843A5F10A0606EB460603FA06F108435A
:10596000E0600CE0206905EB4507072606FA07F121
:10597000884305EB450603FA06F108432061072A30
:105980000FDA606B561E06EB86071F2606FA07F134
:105990008843561E06EB860605FA06F10843606347
:1059A00022E00D2A0FDA206BD61F06EB86071F2692
:1059B00006FA07F18843D61F06EB860605FA06F1BC
:1059C0000843206310E0E06AA2F10D0606EB8607AB
:1059D0001F2606FA07F18843A2F10D0606EB86069C
:1059E00005FA06F10843E062F0BD21B1826842F495
:1059F0008012826003E0826822F480128260704725
:105A00000146C86C80B2704766484C3000687047E9
:105A100021B1426842F48062426003E0426822F4AD
:105A200080624260704721B1426842F48052426015
:105A300003E0426822F48052426070470A46002127
:105A4000816821F4E04111438160704721B182688F
:105A500042F40042826003E0826822F400428260E5
:105A6000704721B1826842F40212826003E08268CA
:105A700022F4021282607047014600208A6802F414
:105A800000120AB1012000E000207047F0B5044682
:105A90001546002000220026092911DDE068A1F149
:105AA0000A0707EB470C072707FA0CF29043A1F10E
:105AB0000A0707EB470703FA07F21043E0600CE020
:105AC000206901EB410C072707FA0CF2904301EB28
:105AD000410703FA07F210432061A06BC0F301569F
